{
	"data": {
		"bytecode": {
			"linkReferences": {},
			"object": "60806040525f5f5f6101000a81548160ff021916908360ff16021790555060ff5f60016101000a81548160ff021916908360ff1602179055505f5f60026101000a81548161ffff021916908361ffff16021790555061ffff5f60046101000a81548161ffff021916908361ffff1602179055505f5f60066101000a81548163ffffffff021916908363ffffffff16021790555063ffffffff5f600a6101000a81548163ffffffff021916908363ffffffff1602179055505f6001557fffffffffffffffffffffffffffffffffffffffffffffffffffffffffffffffff6002557fffffffffffffffffffffffffffffffffffffffffffffffffffffffffffffff8060035f6101000a81548160ff02191690835f0b60ff160217905550607f600360016101000a81548160ff02191690835f0b60ff1602179055507fffffffffffffffffffffffffffffffffffffffffffffffffffffffffffff8000600360026101000a81548161ffff021916908360010b61ffff160217905550617fff600360046101000a81548161ffff021916908360010b61ffff1602179055507fffffffffffffffffffffffffffffffffffffffffffffffffffffffff80000000600360066101000a81548163ffffffff021916908360030b63ffffffff160217905550637fffffff6003600a6101000a81548163ffffffff021916908360030b63ffffffff1602179055507f80000000000000000000000000000000000000000000000000000000000000006004557f7fffffffffffffffffffffffffffffffffffffffffffffffffffffffffffffff600555348015610259575f5ffd5b50610706806102675f395ff3fe608060405234801561000f575f5ffd5b5060043610610113575f3560e01c80639c89a7bd116100a0578063c30e11201161006f578063c30e1120146102a0578063c5c5e161146102be578063da590057146102df578063fc9c3fc0146102fd578063fed245c11461031b57610113565b80639c89a7bd14610228578063aa5ac02b14610246578063ad5572f814610264578063bbebf5531461028257610113565b8063390acd8f116100e7578063390acd8f1461018f5780633bf3309d146101b05780634b275d2a146101ce5780635f8b5400146101ec57806376cfb3ee1461020a57610113565b8062152ae31461011757806303bd7a5e14610135578063168f0373146101535780631905d85914610171575b5f5ffd5b61011f610339565b60405161012c91906104c7565b60405180910390f35b61013d61034b565b60405161014a91906104fb565b60405180910390f35b61015b61035e565b604051610168919061052f565b60405180910390f35b610179610371565b6040516101869190610563565b60405180910390f35b610197610383565b6040516101a794939291906105ce565b60405180910390f35b6101b86103c0565b6040516101c591906104c7565b60405180910390f35b6101d66103d1565b6040516101e39190610611565b60405180910390f35b6101f46103e4565b604051610201919061062a565b60405180910390f35b6102126103f9565b60405161021f9190610563565b60405180910390f35b61023061040a565b60405161023d9190610611565b60405180910390f35b61024e61041d565b60405161025b919061052f565b60405180910390f35b61026c610430565b6040516102799190610643565b60405180910390f35b61028a610436565b604051610297919061062a565b60405180910390f35b6102a861044b565b6040516102b59190610643565b60405180910390f35b6102c6610451565b6040516102d69493929190610674565b60405180910390f35b6102e761048e565b6040516102f491906104fb565b60405180910390f35b6103056104a1565b60405161031291906106b7565b60405180910390f35b6103236104a7565b60405161033091906106b7565b60405180910390f35b600360019054906101000a90045f0b81565b6003600a9054906101000a900460030b81565b600360029054906101000a900460010b81565b5f60019054906101000a900460ff1681565b5f5f5f5f60ff61ffff63ffffffff7fffffffffffffffffffffffffffffffffffffffffffffffffffffffffffffffff935093509350935090919293565b60035f9054906101000a90045f0b81565b5f60049054906101000a900461ffff1681565b5f600a9054906101000a900463ffffffff1681565b5f5f9054906101000a900460ff1681565b5f60029054906101000a900461ffff1681565b600360049054906101000a900460010b81565b60025481565b5f60069054906101000a900463ffffffff1681565b60015481565b5f5f5f5f607f617fff637fffffff7f7fffffffffffffffffffffffffffffffffffffffffffffffffffffffffffffff935093509350935090919293565b600360069054906101000a900460030b81565b60055481565b60045481565b5f815f0b9050919050565b6104c1816104ad565b82525050565b5f6020820190506104da5f8301846104b8565b92915050565b5f8160030b9050919050565b6104f5816104e0565b82525050565b5f60208201905061050e5f8301846104ec565b92915050565b5f8160010b9050919050565b61052981610514565b82525050565b5f6020820190506105425f830184610520565b92915050565b5f60ff82169050919050565b61055d81610548565b82525050565b5f6020820190506105765f830184610554565b92915050565b5f61ffff82169050919050565b6105928161057c565b82525050565b5f63ffffffff82169050919050565b6105b081610598565b82525050565b5f819050919050565b6105c8816105b6565b82525050565b5f6080820190506105e15f830187610554565b6105ee6020830186610589565b6105fb60408301856105a7565b61060860608301846105bf565b95945050505050565b5f6020820190506106245f830184610589565b92915050565b5f60208201905061063d5f8301846105a7565b92915050565b5f6020820190506106565f8301846105bf565b92915050565b5f819050919050565b61066e8161065c565b82525050565b5f6080820190506106875f8301876104b8565b6106946020830186610520565b6106a160408301856104ec565b6106ae6060830184610665565b95945050505050565b5f6020820190506106ca5f830184610665565b9291505056fea26469706673582212201ac10fc648b217fcac9408cdb66dbba22e90fea77f3eef7242b7b74d1305192a64736f6c63430008220033",
			"opcodes": "PUSH1 0x80 PUSH1 0x40 MSTORE PUSH0 PUSH0 PUSH0 PUSH2 0x100 EXP DUP2 SLOAD DUP2 PUSH1 0xFF MUL NOT AND SWAP1 DUP4 PUSH1 0xFF AND MUL OR SWAP1 SSTORE POP PUSH1 0xFF PUSH0 PUSH1 0x1 PUSH2 0x100 EXP DUP2 SLOAD DUP2 PUSH1 0xFF MUL NOT AND SWAP1 DUP4 PUSH1 0xFF AND MUL OR SWAP1 SSTORE POP PUSH0 PUSH0 PUSH1 0x2 PUSH2 0x100 EXP DUP2 SLOAD DUP2 PUSH2 0xFFFF MUL NOT AND SWAP1 DUP4 PUSH2 0xFFFF AND MUL OR SWAP1 SSTORE POP PUSH2 0xFFFF PUSH0 PUSH1 0x4 PUSH2 0x100 EXP DUP2 SLOAD DUP2 PUSH2 0xFFFF MUL NOT AND SWAP1 DUP4 PUSH2 0xFFFF AND MUL OR SWAP1 SSTORE POP PUSH0 PUSH0 PUSH1 0x6 PUSH2 0x100 EXP DUP2 SLOAD DUP2 PUSH4 0xFFFFFFFF MUL NOT AND SWAP1 DUP4 PUSH4 0xFFFFFFFF AND MUL OR SWAP1 SSTORE POP PUSH4 0xFFFFFFFF PUSH0 PUSH1 0xA PUSH2 0x100 EXP DUP2 SLOAD DUP2 PUSH4 0xFFFFFFFF MUL NOT AND SWAP1 DUP4 PUSH4 0xFFFFFFFF AND MUL OR SWAP1 SSTORE POP PUSH0 PUSH1 0x1 SSTORE PUSH32 0xFFFFFFFFFFFFFFFFFFFFFFFFFFFFFFFFFFFFFFFFFFFFFFFFFFFFFFFFFFFFFFFF PUSH1 0x2 SSTORE PUSH32 0xFFFFFFFFFFFFFFFFFFFFFFFFFFFFFFFFFFFFFFFFFFFFFFFFFFFFFFFFFFFFFF80 PUSH1 0x3 PUSH0 PUSH2 0x100 EXP DUP2 SLOAD DUP2 PUSH1 0xFF MUL NOT AND SWAP1 DUP4 PUSH0 SIGNEXTEND PUSH1 0xFF AND MUL OR SWAP1 SSTORE POP PUSH1 0x7F PUSH1 0x3 PUSH1 0x1 PUSH2 0x100 EXP DUP2 SLOAD DUP2 PUSH1 0xFF MUL NOT AND SWAP1 DUP4 PUSH0 SIGNEXTEND PUSH1 0xFF AND MUL OR SWAP1 SSTORE POP PUSH32 0xFFFFFFFFFFFFFFFFFFFFFFFFFFFFFFFFFFFFFFFFFFFFFFFFFFFFFFFFFFFF8000 PUSH1 0x3 PUSH1 0x2 PUSH2 0x100 EXP DUP2 SLOAD DUP2 PUSH2 0xFFFF MUL NOT AND SWAP1 DUP4 PUSH1 0x1 SIGNEXTEND PUSH2 0xFFFF AND MUL OR SWAP1 SSTORE POP PUSH2 0x7FFF PUSH1 0x3 PUSH1 0x4 PUSH2 0x100 EXP DUP2 SLOAD DUP2 PUSH2 0xFFFF MUL NOT AND SWAP1 DUP4 PUSH1 0x1 SIGNEXTEND PUSH2 0xFFFF AND MUL OR SWAP1 SSTORE POP PUSH32 0xFFFFFFFFFFFFFFFFFFFFFFFFFFFFFFFFFFFFFFFFFFFFFFFFFFFFFFFF80000000 PUSH1 0x3 PUSH1 0x6 PUSH2 0x100 EXP DUP2 SLOAD DUP2 PUSH4 0xFFFFFFFF MUL NOT AND SWAP1 DUP4 PUSH1 0x3 SIGNEXTEND PUSH4 0xFFFFFFFF AND MUL OR SWAP1 SSTORE POP PUSH4 0x7FFFFFFF PUSH1 0x3 PUSH1 0xA PUSH2 0x100 EXP DUP2 SLOAD DUP2 PUSH4 0xFFFFFFFF MUL NOT AND SWAP1 DUP4 PUSH1 0x3 SIGNEXTEND PUSH4 0xFFFFFFFF AND MUL OR SWAP1 SSTORE POP PUSH32 0x8000000000000000000000000000000000000000000000000000000000000000 PUSH1 0x4 SSTORE PUSH32 0x7FFFFFFFFFFFFFFFFFFFFFFFFFFFFFFFFFFFFFFFFFFFFFFFFFFFFFFFFFFFFFFF PUSH1 0x5 SSTORE CALLVALUE DUP1 ISZERO PUSH2 0x259 JUMPI PUSH0 PUSH0 REVERT JUMPDEST POP PUSH2 0x706 DUP1 PUSH2 0x267 PUSH0 CODECOPY PUSH0 RETURN INVALID PUSH1 0x80 PUSH1 0x40 MSTORE CALLVALUE DUP1 ISZERO PUSH2 0xF JUMPI PUSH0 PUSH0 REVERT JUMPDEST POP PUSH1 0x4 CALLDATASIZE LT PUSH2 0x113 JUMPI PUSH0 CALLDATALOAD PUSH1 0xE0 SHR DUP1 PUSH4 0x9C89A7BD GT PUSH2 0xA0 JUMPI DUP1 PUSH4 0xC30E1120 GT PUSH2 0x6F JUMPI DUP1 PUSH4 0xC30E1120 EQ PUSH2 0x2A0 JUMPI DUP1 PUSH4 0xC5C5E161 EQ PUSH2 0x2BE JUMPI DUP1 PUSH4 0xDA590057 EQ PUSH2 0x2DF JUMPI DUP1 PUSH4 0xFC9C3FC0 EQ PUSH2 0x2FD JUMPI DUP1 PUSH4 0xFED245C1 EQ PUSH2 0x31B JUMPI PUSH2 0x113 JUMP JUMPDEST DUP1 PUSH4 0x9C89A7BD EQ PUSH2 0x228 JUMPI DUP1 PUSH4 0xAA5AC02B EQ PUSH2 0x246 JUMPI DUP1 PUSH4 0xAD5572F8 EQ PUSH2 0x264 JUMPI DUP1 PUSH4 0xBBEBF553 EQ PUSH2 0x282 JUMPI PUSH2 0x113 JUMP JUMPDEST DUP1 PUSH4 0x390ACD8F GT PUSH2 0xE7 JUMPI DUP1 PUSH4 0x390ACD8F EQ PUSH2 0x18F JUMPI DUP1 PUSH4 0x3BF3309D EQ PUSH2 0x1B0 JUMPI DUP1 PUSH4 0x4B275D2A EQ PUSH2 0x1CE JUMPI DUP1 PUSH4 0x5F8B5400 EQ PUSH2 0x1EC JUMPI DUP1 PUSH4 0x76CFB3EE EQ PUSH2 0x20A JUMPI PUSH2 0x113 JUMP JUMPDEST DUP1 PUSH3 0x152AE3 EQ PUSH2 0x117 JUMPI DUP1 PUSH4 0x3BD7A5E EQ PUSH2 0x135 JUMPI DUP1 PUSH4 0x168F0373 EQ PUSH2 0x153 JUMPI DUP1 PUSH4 0x1905D859 EQ PUSH2 0x171 JUMPI JUMPDEST PUSH0 PUSH0 REVERT JUMPDEST PUSH2 0x11F PUSH2 0x339 JUMP JUMPDEST PUSH1 0x40 MLOAD PUSH2 0x12C SWAP2 SWAP1 PUSH2 0x4C7 JUMP JUMPDEST PUSH1 0x40 MLOAD DUP1 SWAP2 SUB SWAP1 RETURN JUMPDEST PUSH2 0x13D PUSH2 0x34B JUMP JUMPDEST PUSH1 0x40 MLOAD PUSH2 0x14A SWAP2 SWAP1 PUSH2 0x4FB JUMP JUMPDEST PUSH1 0x40 MLOAD DUP1 SWAP2 SUB SWAP1 RETURN JUMPDEST PUSH2 0x15B PUSH2 0x35E JUMP JUMPDEST PUSH1 0x40 MLOAD PUSH2 0x168 SWAP2 SWAP1 PUSH2 0x52F JUMP JUMPDEST PUSH1 0x40 MLOAD DUP1 SWAP2 SUB SWAP1 RETURN JUMPDEST PUSH2 0x179 PUSH2 0x371 JUMP JUMPDEST PUSH1 0x40 MLOAD PUSH2 0x186 SWAP2 SWAP1 PUSH2 0x563 JUMP JUMPDEST PUSH1 0x40 MLOAD DUP1 SWAP2 SUB SWAP1 RETURN JUMPDEST PUSH2 0x197 PUSH2 0x383 JUMP JUMPDEST PUSH1 0x40 MLOAD PUSH2 0x1A7 SWAP5 SWAP4 SWAP3 SWAP2 SWAP1 PUSH2 0x5CE JUMP JUMPDEST PUSH1 0x40 MLOAD DUP1 SWAP2 SUB SWAP1 RETURN JUMPDEST PUSH2 0x1B8 PUSH2 0x3C0 JUMP JUMPDEST PUSH1 0x40 MLOAD PUSH2 0x1C5 SWAP2 SWAP1 PUSH2 0x4C7 JUMP JUMPDEST PUSH1 0x40 MLOAD DUP1 SWAP2 SUB SWAP1 RETURN JUMPDEST PUSH2 0x1D6 PUSH2 0x3D1 JUMP JUMPDEST PUSH1 0x40 MLOAD PUSH2 0x1E3 SWAP2 SWAP1 PUSH2 0x611 JUMP JUMPDEST PUSH1 0x40 MLOAD DUP1 SWAP2 SUB SWAP1 RETURN JUMPDEST PUSH2 0x1F4 PUSH2 0x3E4 JUMP JUMPDEST PUSH1 0x40 MLOAD PUSH2 0x201 SWAP2 SWAP1 PUSH2 0x62A JUMP JUMPDEST PUSH1 0x40 MLOAD DUP1 SWAP2 SUB SWAP1 RETURN JUMPDEST PUSH2 0x212 PUSH2 0x3F9 JUMP JUMPDEST PUSH1 0x40 MLOAD PUSH2 0x21F SWAP2 SWAP1 PUSH2 0x563 JUMP JUMPDEST PUSH1 0x40 MLOAD DUP1 SWAP2 SUB SWAP1 RETURN JUMPDEST PUSH2 0x230 PUSH2 0x40A JUMP JUMPDEST PUSH1 0x40 MLOAD PUSH2 0x23D SWAP2 SWAP1 PUSH2 0x611 JUMP JUMPDEST PUSH1 0x40 MLOAD DUP1 SWAP2 SUB SWAP1 RETURN JUMPDEST PUSH2 0x24E PUSH2 0x41D JUMP JUMPDEST PUSH1 0x40 MLOAD PUSH2 0x25B SWAP2 SWAP1 PUSH2 0x52F JUMP JUMPDEST PUSH1 0x40 MLOAD DUP1 SWAP2 SUB SWAP1 RETURN JUMPDEST PUSH2 0x26C PUSH2 0x430 JUMP JUMPDEST PUSH1 0x40 MLOAD PUSH2 0x279 SWAP2 SWAP1 PUSH2 0x643 JUMP JUMPDEST PUSH1 0x40 MLOAD DUP1 SWAP2 SUB SWAP1 RETURN JUMPDEST PUSH2 0x28A PUSH2 0x436 JUMP JUMPDEST PUSH1 0x40 MLOAD PUSH2 0x297 SWAP2 SWAP1 PUSH2 0x62A JUMP JUMPDEST PUSH1 0x40 MLOAD DUP1 SWAP2 SUB SWAP1 RETURN JUMPDEST PUSH2 0x2A8 PUSH2 0x44B JUMP JUMPDEST PUSH1 0x40 MLOAD PUSH2 0x2B5 SWAP2 SWAP1 PUSH2 0x643 JUMP JUMPDEST PUSH1 0x40 MLOAD DUP1 SWAP2 SUB SWAP1 RETURN JUMPDEST PUSH2 0x2C6 PUSH2 0x451 JUMP JUMPDEST PUSH1 0x40 MLOAD PUSH2 0x2D6 SWAP5 SWAP4 SWAP3 SWAP2 SWAP1 PUSH2 0x674 JUMP JUMPDEST PUSH1 0x40 MLOAD DUP1 SWAP2 SUB SWAP1 RETURN JUMPDEST PUSH2 0x2E7 PUSH2 0x48E JUMP JUMPDEST PUSH1 0x40 MLOAD PUSH2 0x2F4 SWAP2 SWAP1 PUSH2 0x4FB JUMP JUMPDEST PUSH1 0x40 MLOAD DUP1 SWAP2 SUB SWAP1 RETURN JUMPDEST PUSH2 0x305 PUSH2 0x4A1 JUMP JUMPDEST PUSH1 0x40 MLOAD PUSH2 0x312 SWAP2 SWAP1 PUSH2 0x6B7 JUMP JUMPDEST PUSH1 0x40 MLOAD DUP1 SWAP2 SUB SWAP1 RETURN JUMPDEST PUSH2 0x323 PUSH2 0x4A7 JUMP JUMPDEST PUSH1 0x40 MLOAD PUSH2 0x330 SWAP2 SWAP1 PUSH2 0x6B7 JUMP JUMPDEST PUSH1 0x40 MLOAD DUP1 SWAP2 SUB SWAP1 RETURN JUMPDEST PUSH1 0x3 PUSH1 0x1 SWAP1 SLOAD SWAP1 PUSH2 0x100 EXP SWAP1 DIV PUSH0 SIGNEXTEND DUP2 JUMP JUMPDEST PUSH1 0x3 PUSH1 0xA SWAP1 SLOAD SWAP1 PUSH2 0x100 EXP SWAP1 DIV PUSH1 0x3 SIGNEXTEND DUP2 JUMP JUMPDEST PUSH1 0x3 PUSH1 0x2 SWAP1 SLOAD SWAP1 PUSH2 0x100 EXP SWAP1 DIV PUSH1 0x1 SIGNEXTEND DUP2 JUMP JUMPDEST PUSH0 PUSH1 0x1 SWAP1 SLOAD SWAP1 PUSH2 0x100 EXP SWAP1 DIV PUSH1 0xFF AND DUP2 JUMP JUMPDEST PUSH0 PUSH0 PUSH0 PUSH0 PUSH1 0xFF PUSH2 0xFFFF PUSH4 0xFFFFFFFF PUSH32 0xFFFFFFFFFFFFFFFFFFFFFFFFFFFFFFFFFFFFFFFFFFFFFFFFFFFFFFFFFFFFFFFF SWAP4 POP SWAP4 POP SWAP4 POP SWAP4 POP SWAP1 SWAP2 SWAP3 SWAP4 JUMP JUMPDEST PUSH1 0x3 PUSH0 SWAP1 SLOAD SWAP1 PUSH2 0x100 EXP SWAP1 DIV PUSH0 SIGNEXTEND DUP2 JUMP JUMPDEST PUSH0 PUSH1 0x4 SWAP1 SLOAD SWAP1 PUSH2 0x100 EXP SWAP1 DIV PUSH2 0xFFFF AND DUP2 JUMP JUMPDEST PUSH0 PUSH1 0xA SWAP1 SLOAD SWAP1 PUSH2 0x100 EXP SWAP1 DIV PUSH4 0xFFFFFFFF AND DUP2 JUMP JUMPDEST PUSH0 PUSH0 SWAP1 SLOAD SWAP1 PUSH2 0x100 EXP SWAP1 DIV PUSH1 0xFF AND DUP2 JUMP JUMPDEST PUSH0 PUSH1 0x2 SWAP1 SLOAD SWAP1 PUSH2 0x100 EXP SWAP1 DIV PUSH2 0xFFFF AND DUP2 JUMP JUMPDEST PUSH1 0x3 PUSH1 0x4 SWAP1 SLOAD SWAP1 PUSH2 0x100 EXP SWAP1 DIV PUSH1 0x1 SIGNEXTEND DUP2 JUMP JUMPDEST PUSH1 0x2 SLOAD DUP2 JUMP JUMPDEST PUSH0 PUSH1 0x6 SWAP1 SLOAD SWAP1 PUSH2 0x100 EXP SWAP1 DIV PUSH4 0xFFFFFFFF AND DUP2 JUMP JUMPDEST PUSH1 0x1 SLOAD DUP2 JUMP JUMPDEST PUSH0 PUSH0 PUSH0 PUSH0 PUSH1 0x7F PUSH2 0x7FFF PUSH4 0x7FFFFFFF PUSH32 0x7FFFFFFFFFFFFFFFFFFFFFFFFFFFFFFFFFFFFFFFFFFFFFFFFFFFFFFFFFFFFFFF SWAP4 POP SWAP4 POP SWAP4 POP SWAP4 POP SWAP1 SWAP2 SWAP3 SWAP4 JUMP JUMPDEST PUSH1 0x3 PUSH1 0x6 SWAP1 SLOAD SWAP1 PUSH2 0x100 EXP SWAP1 DIV PUSH1 0x3 SIGNEXTEND DUP2 JUMP JUMPDEST PUSH1 0x5 SLOAD DUP2 JUMP JUMPDEST PUSH1 0x4 SLOAD DUP2 JUMP JUMPDEST PUSH0 DUP2 PUSH0 SIGNEXTEND SWAP1 POP SWAP2 SWAP1 POP JUMP JUMPDEST PUSH2 0x4C1 DUP2 PUSH2 0x4AD JUMP JUMPDEST DUP3 MSTORE POP POP JUMP JUMPDEST PUSH0 PUSH1 0x20 DUP3 ADD SWAP1 POP PUSH2 0x4DA PUSH0 DUP4 ADD DUP5 PUSH2 0x4B8 JUMP JUMPDEST SWAP3 SWAP2 POP POP JUMP JUMPDEST PUSH0 DUP2 PUSH1 0x3 SIGNEXTEND SWAP1 POP SWAP2 SWAP1 POP JUMP JUMPDEST PUSH2 0x4F5 DUP2 PUSH2 0x4E0 JUMP JUMPDEST DUP3 MSTORE POP POP JUMP JUMPDEST PUSH0 PUSH1 0x20 DUP3 ADD SWAP1 POP PUSH2 0x50E PUSH0 DUP4 ADD DUP5 PUSH2 0x4EC JUMP JUMPDEST SWAP3 SWAP2 POP POP JUMP JUMPDEST PUSH0 DUP2 PUSH1 0x1 SIGNEXTEND SWAP1 POP SWAP2 SWAP1 POP JUMP JUMPDEST PUSH2 0x529 DUP2 PUSH2 0x514 JUMP JUMPDEST DUP3 MSTORE POP POP JUMP JUMPDEST PUSH0 PUSH1 0x20 DUP3 ADD SWAP1 POP PUSH2 0x542 PUSH0 DUP4 ADD DUP5 PUSH2 0x520 JUMP JUMPDEST SWAP3 SWAP2 POP POP JUMP JUMPDEST PUSH0 PUSH1 0xFF DUP3 AND SWAP1 POP SWAP2 SWAP1 POP JUMP JUMPDEST PUSH2 0x55D DUP2 PUSH2 0x548 JUMP JUMPDEST DUP3 MSTORE POP POP JUMP JUMPDEST PUSH0 PUSH1 0x20 DUP3 ADD SWAP1 POP PUSH2 0x576 PUSH0 DUP4 ADD DUP5 PUSH2 0x554 JUMP JUMPDEST SWAP3 SWAP2 POP POP JUMP JUMPDEST PUSH0 PUSH2 0xFFFF DUP3 AND SWAP1 POP SWAP2 SWAP1 POP JUMP JUMPDEST PUSH2 0x592 DUP2 PUSH2 0x57C JUMP JUMPDEST DUP3 MSTORE POP POP JUMP JUMPDEST PUSH0 PUSH4 0xFFFFFFFF DUP3 AND SWAP1 POP SWAP2 SWAP1 POP JUMP JUMPDEST PUSH2 0x5B0 DUP2 PUSH2 0x598 JUMP JUMPDEST DUP3 MSTORE POP POP JUMP JUMPDEST PUSH0 DUP2 SWAP1 POP SWAP2 SWAP1 POP JUMP JUMPDEST PUSH2 0x5C8 DUP2 PUSH2 0x5B6 JUMP JUMPDEST DUP3 MSTORE POP POP JUMP JUMPDEST PUSH0 PUSH1 0x80 DUP3 ADD SWAP1 POP PUSH2 0x5E1 PUSH0 DUP4 ADD DUP8 PUSH2 0x554 JUMP JUMPDEST PUSH2 0x5EE PUSH1 0x20 DUP4 ADD DUP7 PUSH2 0x589 JUMP JUMPDEST PUSH2 0x5FB PUSH1 0x40 DUP4 ADD DUP6 PUSH2 0x5A7 JUMP JUMPDEST PUSH2 0x608 PUSH1 0x60 DUP4 ADD DUP5 PUSH2 0x5BF JUMP JUMPDEST SWAP6 SWAP5 POP POP POP POP POP JUMP JUMPDEST PUSH0 PUSH1 0x20 DUP3 ADD SWAP1 POP PUSH2 0x624 PUSH0 DUP4 ADD DUP5 PUSH2 0x589 JUMP JUMPDEST SWAP3 SWAP2 POP POP JUMP JUMPDEST PUSH0 PUSH1 0x20 DUP3 ADD SWAP1 POP PUSH2 0x63D PUSH0 DUP4 ADD DUP5 PUSH2 0x5A7 JUMP JUMPDEST SWAP3 SWAP2 POP POP JUMP JUMPDEST PUSH0 PUSH1 0x20 DUP3 ADD SWAP1 POP PUSH2 0x656 PUSH0 DUP4 ADD DUP5 PUSH2 0x5BF JUMP JUMPDEST SWAP3 SWAP2 POP POP JUMP JUMPDEST PUSH0 DUP2 SWAP1 POP SWAP2 SWAP1 POP JUMP JUMPDEST PUSH2 0x66E DUP2 PUSH2 0x65C JUMP JUMPDEST DUP3 MSTORE POP POP JUMP JUMPDEST PUSH0 PUSH1 0x80 DUP3 ADD SWAP1 POP PUSH2 0x687 PUSH0 DUP4 ADD DUP8 PUSH2 0x4B8 JUMP JUMPDEST PUSH2 0x694 PUSH1 0x20 DUP4 ADD DUP7 PUSH2 0x520 JUMP JUMPDEST PUSH2 0x6A1 PUSH1 0x40 DUP4 ADD DUP6 PUSH2 0x4EC JUMP JUMPDEST PUSH2 0x6AE PUSH1 0x60 DUP4 ADD DUP5 PUSH2 0x665 JUMP JUMPDEST SWAP6 SWAP5 POP POP POP POP POP JUMP JUMPDEST PUSH0 PUSH1 0x20 DUP3 ADD SWAP1 POP PUSH2 0x6CA PUSH0 DUP4 ADD DUP5 PUSH2 0x665 JUMP JUMPDEST SWAP3 SWAP2 POP POP JUMP INVALID LOG2 PUSH5 0x6970667358 0x22 SLT KECCAK256 BYTE 0xC1 0xF 0xC6 BASEFEE 0xB2 OR 0xFC 0xAC SWAP5 ADDMOD 0xCD 0xB6 PUSH14 0xBBA22E90FEA77F3EEF7242B7B74D SGT SDIV NOT 0x2A PUSH5 0x736F6C6343 STOP ADDMOD 0x22 STOP CALLER "
		},
		"gasEstimates": {
			"creation": {
				"codeDepositCost": "359600",
				"executionCost": "363459",
				"totalCost": "723059"
			},
			"external": {
				"getIntValues()": "735",
				"getUintValues()": "709",
				"maxValue_int16()": "2566",
				"maxValue_int256()": "2513",
				"maxValue_int32()": "2567",
				"maxValue_int8()": "2543",
				"maxValue_uint16()": "2583",
				"maxValue_uint256()": "2492",
				"maxValue_uint32()": "2605",
				"maxValue_uint8()": "2606",
				"minValue_int16()": "2589",
				"minValue_int256()": "2535",
				"minValue_int32()": "2587",
				"minValue_int8()": "2513",
				"minValue_uint16()": "2539",
				"minValue_uint256()": "2447",
				"minValue_uint32()": "2605",
				"minValue_uint8()": "2576"
			}
		},
		"methodIdentifiers": {
			"getIntValues()": "c5c5e161",
			"getUintValues()": "390acd8f",
			"maxValue_int16()": "aa5ac02b",
			"maxValue_int256()": "fc9c3fc0",
			"maxValue_int32()": "03bd7a5e",
			"maxValue_int8()": "00152ae3",
			"maxValue_uint16()": "4b275d2a",
			"maxValue_uint256()": "ad5572f8",
			"maxValue_uint32()": "5f8b5400",
			"maxValue_uint8()": "1905d859",
			"minValue_int16()": "168f0373",
			"minValue_int256()": "fed245c1",
			"minValue_int32()": "da590057",
			"minValue_int8()": "3bf3309d",
			"minValue_uint16()": "9c89a7bd",
			"minValue_uint256()": "c30e1120",
			"minValue_uint32()": "bbebf553",
			"minValue_uint8()": "76cfb3ee"
		}
	},
	"abi": [
		{
			"inputs": [],
			"name": "getIntValues",
			"outputs": [
				{
					"internalType": "int8",
					"name": "",
					"type": "int8"
				},
				{
					"internalType": "int16",
					"name": "",
					"type": "int16"
				},
				{
					"internalType": "int32",
					"name": "",
					"type": "int32"
				},
				{
					"internalType": "int256",
					"name": "",
					"type": "int256"
				}
			],
			"stateMutability": "pure",
			"type": "function"
		},
		{
			"inputs": [],
			"name": "getUintValues",
			"outputs": [
				{
					"internalType": "uint8",
					"name": "",
					"type": "uint8"
				},
				{
					"internalType": "uint16",
					"name": "",
					"type": "uint16"
				},
				{
					"internalType": "uint32",
					"name": "",
					"type": "uint32"
				},
				{
					"internalType": "uint256",
					"name": "",
					"type": "uint256"
				}
			],
			"stateMutability": "pure",
			"type": "function"
		},
		{
			"inputs": [],
			"name": "maxValue_int16",
			"outputs": [
				{
					"internalType": "int16",
					"name": "",
					"type": "int16"
				}
			],
			"stateMutability": "view",
			"type": "function"
		},
		{
			"inputs": [],
			"name": "maxValue_int256",
			"outputs": [
				{
					"internalType": "int256",
					"name": "",
					"type": "int256"
				}
			],
			"stateMutability": "view",
			"type": "function"
		},
		{
			"inputs": [],
			"name": "maxValue_int32",
			"outputs": [
				{
					"internalType": "int32",
					"name": "",
					"type": "int32"
				}
			],
			"stateMutability": "view",
			"type": "function"
		},
		{
			"inputs": [],
			"name": "maxValue_int8",
			"outputs": [
				{
					"internalType": "int8",
					"name": "",
					"type": "int8"
				}
			],
			"stateMutability": "view",
			"type": "function"
		},
		{
			"inputs": [],
			"name": "maxValue_uint16",
			"outputs": [
				{
					"internalType": "uint16",
					"name": "",
					"type": "uint16"
				}
			],
			"stateMutability": "view",
			"type": "function"
		},
		{
			"inputs": [],
			"name": "maxValue_uint256",
			"outputs": [
				{
					"internalType": "uint256",
					"name": "",
					"type": "uint256"
				}
			],
			"stateMutability": "view",
			"type": "function"
		},
		{
			"inputs": [],
			"name": "maxValue_uint32",
			"outputs": [
				{
					"internalType": "uint32",
					"name": "",
					"type": "uint32"
				}
			],
			"stateMutability": "view",
			"type": "function"
		},
		{
			"inputs": [],
			"name": "maxValue_uint8",
			"outputs": [
				{
					"internalType": "uint8",
					"name": "",
					"type": "uint8"
				}
			],
			"stateMutability": "view",
			"type": "function"
		},
		{
			"inputs": [],
			"name": "minValue_int16",
			"outputs": [
				{
					"internalType": "int16",
					"name": "",
					"type": "int16"
				}
			],
			"stateMutability": "view",
			"type": "function"
		},
		{
			"inputs": [],
			"name": "minValue_int256",
			"outputs": [
				{
					"internalType": "int256",
					"name": "",
					"type": "int256"
				}
			],
			"stateMutability": "view",
			"type": "function"
		},
		{
			"inputs": [],
			"name": "minValue_int32",
			"outputs": [
				{
					"internalType": "int32",
					"name": "",
					"type": "int32"
				}
			],
			"stateMutability": "view",
			"type": "function"
		},
		{
			"inputs": [],
			"name": "minValue_int8",
			"outputs": [
				{
					"internalType": "int8",
					"name": "",
					"type": "int8"
				}
			],
			"stateMutability": "view",
			"type": "function"
		},
		{
			"inputs": [],
			"name": "minValue_uint16",
			"outputs": [
				{
					"internalType": "uint16",
					"name": "",
					"type": "uint16"
				}
			],
			"stateMutability": "view",
			"type": "function"
		},
		{
			"inputs": [],
			"name": "minValue_uint256",
			"outputs": [
				{
					"internalType": "uint256",
					"name": "",
					"type": "uint256"
				}
			],
			"stateMutability": "view",
			"type": "function"
		},
		{
			"inputs": [],
			"name": "minValue_uint32",
			"outputs": [
				{
					"internalType": "uint32",
					"name": "",
					"type": "uint32"
				}
			],
			"stateMutability": "view",
			"type": "function"
		},
		{
			"inputs": [],
			"name": "minValue_uint8",
			"outputs": [
				{
					"internalType": "uint8",
					"name": "",
					"type": "uint8"
				}
			],
			"stateMutability": "view",
			"type": "function"
		}
	]
}