{
	"data": {
		"bytecode": {
			"linkReferences": {},
			"object": "60806040525f5f5f6101000a81548160ff021916908360ff16021790555060ff5f60016101000a81548160ff021916908360ff1602179055505f5f60026101000a81548161ffff021916908361ffff16021790555061ffff5f60046101000a81548161ffff021916908361ffff1602179055505f5f60066101000a81548163ffffffff021916908363ffffffff16021790555063ffffffff5f600a6101000a81548163ffffffff021916908363ffffffff1602179055505f6001557fffffffffffffffffffffffffffffffffffffffffffffffffffffffffffffffff6002557fffffffffffffffffffffffffffffffffffffffffffffffffffffffffffffff8060035f6101000a81548160ff02191690835f0b60ff160217905550607f600360016101000a81548160ff02191690835f0b60ff1602179055507fffffffffffffffffffffffffffffffffffffffffffffffffffffffffffff8000600360026101000a81548161ffff021916908360010b61ffff160217905550617fff600360046101000a81548161ffff021916908360010b61ffff1602179055507fffffffffffffffffffffffffffffffffffffffffffffffffffffffff80000000600360066101000a81548163ffffffff021916908360030b63ffffffff160217905550637fffffff6003600a6101000a81548163ffffffff021916908360030b63ffffffff1602179055507f80000000000000000000000000000000000000000000000000000000000000006004557f7fffffffffffffffffffffffffffffffffffffffffffffffffffffffffffffff600555348015610259575f5ffd5b506105ae806102675f395ff3fe608060405234801561000f575f5ffd5b50600436106100fd575f3560e01c80639c89a7bd11610095578063c30e112011610064578063c30e112014610269578063da59005714610287578063fc9c3fc0146102a5578063fed245c1146102c3576100fd565b80639c89a7bd146101f1578063aa5ac02b1461020f578063ad5572f81461022d578063bbebf5531461024b576100fd565b80633bf3309d116100d15780633bf3309d146101795780634b275d2a146101975780635f8b5400146101b557806376cfb3ee146101d3576100fd565b8062152ae31461010157806303bd7a5e1461011f578063168f03731461013d5780631905d8591461015b575b5f5ffd5b6101096102e1565b60405161011691906103f5565b60405180910390f35b6101276102f3565b6040516101349190610429565b60405180910390f35b610145610306565b604051610152919061045d565b60405180910390f35b610163610319565b6040516101709190610491565b60405180910390f35b61018161032b565b60405161018e91906103f5565b60405180910390f35b61019f61033c565b6040516101ac91906104c6565b60405180910390f35b6101bd61034f565b6040516101ca91906104fd565b60405180910390f35b6101db610364565b6040516101e89190610491565b60405180910390f35b6101f9610375565b60405161020691906104c6565b60405180910390f35b610217610388565b604051610224919061045d565b60405180910390f35b61023561039b565b604051610242919061052e565b60405180910390f35b6102536103a1565b60405161026091906104fd565b60405180910390f35b6102716103b6565b60405161027e919061052e565b60405180910390f35b61028f6103bc565b60405161029c9190610429565b60405180910390f35b6102ad6103cf565b6040516102ba919061055f565b60405180910390f35b6102cb6103d5565b6040516102d8919061055f565b60405180910390f35b600360019054906101000a90045f0b81565b6003600a9054906101000a900460030b81565b600360029054906101000a900460010b81565b5f60019054906101000a900460ff1681565b60035f9054906101000a90045f0b81565b5f60049054906101000a900461ffff1681565b5f600a9054906101000a900463ffffffff1681565b5f5f9054906101000a900460ff1681565b5f60029054906101000a900461ffff1681565b600360049054906101000a900460010b81565b60025481565b5f60069054906101000a900463ffffffff1681565b60015481565b600360069054906101000a900460030b81565b60055481565b60045481565b5f815f0b9050919050565b6103ef816103db565b82525050565b5f6020820190506104085f8301846103e6565b92915050565b5f8160030b9050919050565b6104238161040e565b82525050565b5f60208201905061043c5f83018461041a565b92915050565b5f8160010b9050919050565b61045781610442565b82525050565b5f6020820190506104705f83018461044e565b92915050565b5f60ff82169050919050565b61048b81610476565b82525050565b5f6020820190506104a45f830184610482565b92915050565b5f61ffff82169050919050565b6104c0816104aa565b82525050565b5f6020820190506104d95f8301846104b7565b92915050565b5f63ffffffff82169050919050565b6104f7816104df565b82525050565b5f6020820190506105105f8301846104ee565b92915050565b5f819050919050565b61052881610516565b82525050565b5f6020820190506105415f83018461051f565b92915050565b5f819050919050565b61055981610547565b82525050565b5f6020820190506105725f830184610550565b9291505056fea2646970667358221220fc1ad34921cd9f46022075859af109b501acfd57bf59fee2a1c8df47e477d59964736f6c63430008220033",
			"opcodes": "PUSH1 0x80 PUSH1 0x40 MSTORE PUSH0 PUSH0 PUSH0 PUSH2 0x100 EXP DUP2 SLOAD DUP2 PUSH1 0xFF MUL NOT AND SWAP1 DUP4 PUSH1 0xFF AND MUL OR SWAP1 SSTORE POP PUSH1 0xFF PUSH0 PUSH1 0x1 PUSH2 0x100 EXP DUP2 SLOAD DUP2 PUSH1 0xFF MUL NOT AND SWAP1 DUP4 PUSH1 0xFF AND MUL OR SWAP1 SSTORE POP PUSH0 PUSH0 PUSH1 0x2 PUSH2 0x100 EXP DUP2 SLOAD DUP2 PUSH2 0xFFFF MUL NOT AND SWAP1 DUP4 PUSH2 0xFFFF AND MUL OR SWAP1 SSTORE POP PUSH2 0xFFFF PUSH0 PUSH1 0x4 PUSH2 0x100 EXP DUP2 SLOAD DUP2 PUSH2 0xFFFF MUL NOT AND SWAP1 DUP4 PUSH2 0xFFFF AND MUL OR SWAP1 SSTORE POP PUSH0 PUSH0 PUSH1 0x6 PUSH2 0x100 EXP DUP2 SLOAD DUP2 PUSH4 0xFFFFFFFF MUL NOT AND SWAP1 DUP4 PUSH4 0xFFFFFFFF AND MUL OR SWAP1 SSTORE POP PUSH4 0xFFFFFFFF PUSH0 PUSH1 0xA PUSH2 0x100 EXP DUP2 SLOAD DUP2 PUSH4 0xFFFFFFFF MUL NOT AND SWAP1 DUP4 PUSH4 0xFFFFFFFF AND MUL OR SWAP1 SSTORE POP PUSH0 PUSH1 0x1 SSTORE PUSH32 0xFFFFFFFFFFFFFFFFFFFFFFFFFFFFFFFFFFFFFFFFFFFFFFFFFFFFFFFFFFFFFFFF PUSH1 0x2 SSTORE PUSH32 0xFFFFFFFFFFFFFFFFFFFFFFFFFFFFFFFFFFFFFFFFFFFFFFFFFFFFFFFFFFFFFF80 PUSH1 0x3 PUSH0 PUSH2 0x100 EXP DUP2 SLOAD DUP2 PUSH1 0xFF MUL NOT AND SWAP1 DUP4 PUSH0 SIGNEXTEND PUSH1 0xFF AND MUL OR SWAP1 SSTORE POP PUSH1 0x7F PUSH1 0x3 PUSH1 0x1 PUSH2 0x100 EXP DUP2 SLOAD DUP2 PUSH1 0xFF MUL NOT AND SWAP1 DUP4 PUSH0 SIGNEXTEND PUSH1 0xFF AND MUL OR SWAP1 SSTORE POP PUSH32 0xFFFFFFFFFFFFFFFFFFFFFFFFFFFFFFFFFFFFFFFFFFFFFFFFFFFFFFFFFFFF8000 PUSH1 0x3 PUSH1 0x2 PUSH2 0x100 EXP DUP2 SLOAD DUP2 PUSH2 0xFFFF MUL NOT AND SWAP1 DUP4 PUSH1 0x1 SIGNEXTEND PUSH2 0xFFFF AND MUL OR SWAP1 SSTORE POP PUSH2 0x7FFF PUSH1 0x3 PUSH1 0x4 PUSH2 0x100 EXP DUP2 SLOAD DUP2 PUSH2 0xFFFF MUL NOT AND SWAP1 DUP4 PUSH1 0x1 SIGNEXTEND PUSH2 0xFFFF AND MUL OR SWAP1 SSTORE POP PUSH32 0xFFFFFFFFFFFFFFFFFFFFFFFFFFFFFFFFFFFFFFFFFFFFFFFFFFFFFFFF80000000 PUSH1 0x3 PUSH1 0x6 PUSH2 0x100 EXP DUP2 SLOAD DUP2 PUSH4 0xFFFFFFFF MUL NOT AND SWAP1 DUP4 PUSH1 0x3 SIGNEXTEND PUSH4 0xFFFFFFFF AND MUL OR SWAP1 SSTORE POP PUSH4 0x7FFFFFFF PUSH1 0x3 PUSH1 0xA PUSH2 0x100 EXP DUP2 SLOAD DUP2 PUSH4 0xFFFFFFFF MUL NOT AND SWAP1 DUP4 PUSH1 0x3 SIGNEXTEND PUSH4 0xFFFFFFFF AND MUL OR SWAP1 SSTORE POP PUSH32 0x8000000000000000000000000000000000000000000000000000000000000000 PUSH1 0x4 SSTORE PUSH32 0x7FFFFFFFFFFFFFFFFFFFFFFFFFFFFFFFFFFFFFFFFFFFFFFFFFFFFFFFFFFFFFFF PUSH1 0x5 SSTORE CALLVALUE DUP1 ISZERO PUSH2 0x259 JUMPI PUSH0 PUSH0 REVERT JUMPDEST POP PUSH2 0x5AE DUP1 PUSH2 0x267 PUSH0 CODECOPY PUSH0 RETURN INVALID PUSH1 0x80 PUSH1 0x40 MSTORE CALLVALUE DUP1 ISZERO PUSH2 0xF JUMPI PUSH0 PUSH0 REVERT JUMPDEST POP PUSH1 0x4 CALLDATASIZE LT PUSH2 0xFD JUMPI PUSH0 CALLDATALOAD PUSH1 0xE0 SHR DUP1 PUSH4 0x9C89A7BD GT PUSH2 0x95 JUMPI DUP1 PUSH4 0xC30E1120 GT PUSH2 0x64 JUMPI DUP1 PUSH4 0xC30E1120 EQ PUSH2 0x269 JUMPI DUP1 PUSH4 0xDA590057 EQ PUSH2 0x287 JUMPI DUP1 PUSH4 0xFC9C3FC0 EQ PUSH2 0x2A5 JUMPI DUP1 PUSH4 0xFED245C1 EQ PUSH2 0x2C3 JUMPI PUSH2 0xFD JUMP JUMPDEST DUP1 PUSH4 0x9C89A7BD EQ PUSH2 0x1F1 JUMPI DUP1 PUSH4 0xAA5AC02B EQ PUSH2 0x20F JUMPI DUP1 PUSH4 0xAD5572F8 EQ PUSH2 0x22D JUMPI DUP1 PUSH4 0xBBEBF553 EQ PUSH2 0x24B JUMPI PUSH2 0xFD JUMP JUMPDEST DUP1 PUSH4 0x3BF3309D GT PUSH2 0xD1 JUMPI DUP1 PUSH4 0x3BF3309D EQ PUSH2 0x179 JUMPI DUP1 PUSH4 0x4B275D2A EQ PUSH2 0x197 JUMPI DUP1 PUSH4 0x5F8B5400 EQ PUSH2 0x1B5 JUMPI DUP1 PUSH4 0x76CFB3EE EQ PUSH2 0x1D3 JUMPI PUSH2 0xFD JUMP JUMPDEST DUP1 PUSH3 0x152AE3 EQ PUSH2 0x101 JUMPI DUP1 PUSH4 0x3BD7A5E EQ PUSH2 0x11F JUMPI DUP1 PUSH4 0x168F0373 EQ PUSH2 0x13D JUMPI DUP1 PUSH4 0x1905D859 EQ PUSH2 0x15B JUMPI JUMPDEST PUSH0 PUSH0 REVERT JUMPDEST PUSH2 0x109 PUSH2 0x2E1 JUMP JUMPDEST PUSH1 0x40 MLOAD PUSH2 0x116 SWAP2 SWAP1 PUSH2 0x3F5 JUMP JUMPDEST PUSH1 0x40 MLOAD DUP1 SWAP2 SUB SWAP1 RETURN JUMPDEST PUSH2 0x127 PUSH2 0x2F3 JUMP JUMPDEST PUSH1 0x40 MLOAD PUSH2 0x134 SWAP2 SWAP1 PUSH2 0x429 JUMP JUMPDEST PUSH1 0x40 MLOAD DUP1 SWAP2 SUB SWAP1 RETURN JUMPDEST PUSH2 0x145 PUSH2 0x306 JUMP JUMPDEST PUSH1 0x40 MLOAD PUSH2 0x152 SWAP2 SWAP1 PUSH2 0x45D JUMP JUMPDEST PUSH1 0x40 MLOAD DUP1 SWAP2 SUB SWAP1 RETURN JUMPDEST PUSH2 0x163 PUSH2 0x319 JUMP JUMPDEST PUSH1 0x40 MLOAD PUSH2 0x170 SWAP2 SWAP1 PUSH2 0x491 JUMP JUMPDEST PUSH1 0x40 MLOAD DUP1 SWAP2 SUB SWAP1 RETURN JUMPDEST PUSH2 0x181 PUSH2 0x32B JUMP JUMPDEST PUSH1 0x40 MLOAD PUSH2 0x18E SWAP2 SWAP1 PUSH2 0x3F5 JUMP JUMPDEST PUSH1 0x40 MLOAD DUP1 SWAP2 SUB SWAP1 RETURN JUMPDEST PUSH2 0x19F PUSH2 0x33C JUMP JUMPDEST PUSH1 0x40 MLOAD PUSH2 0x1AC SWAP2 SWAP1 PUSH2 0x4C6 JUMP JUMPDEST PUSH1 0x40 MLOAD DUP1 SWAP2 SUB SWAP1 RETURN JUMPDEST PUSH2 0x1BD PUSH2 0x34F JUMP JUMPDEST PUSH1 0x40 MLOAD PUSH2 0x1CA SWAP2 SWAP1 PUSH2 0x4FD JUMP JUMPDEST PUSH1 0x40 MLOAD DUP1 SWAP2 SUB SWAP1 RETURN JUMPDEST PUSH2 0x1DB PUSH2 0x364 JUMP JUMPDEST PUSH1 0x40 MLOAD PUSH2 0x1E8 SWAP2 SWAP1 PUSH2 0x491 JUMP JUMPDEST PUSH1 0x40 MLOAD DUP1 SWAP2 SUB SWAP1 RETURN JUMPDEST PUSH2 0x1F9 PUSH2 0x375 JUMP JUMPDEST PUSH1 0x40 MLOAD PUSH2 0x206 SWAP2 SWAP1 PUSH2 0x4C6 JUMP JUMPDEST PUSH1 0x40 MLOAD DUP1 SWAP2 SUB SWAP1 RETURN JUMPDEST PUSH2 0x217 PUSH2 0x388 JUMP JUMPDEST PUSH1 0x40 MLOAD PUSH2 0x224 SWAP2 SWAP1 PUSH2 0x45D JUMP JUMPDEST PUSH1 0x40 MLOAD DUP1 SWAP2 SUB SWAP1 RETURN JUMPDEST PUSH2 0x235 PUSH2 0x39B JUMP JUMPDEST PUSH1 0x40 MLOAD PUSH2 0x242 SWAP2 SWAP1 PUSH2 0x52E JUMP JUMPDEST PUSH1 0x40 MLOAD DUP1 SWAP2 SUB SWAP1 RETURN JUMPDEST PUSH2 0x253 PUSH2 0x3A1 JUMP JUMPDEST PUSH1 0x40 MLOAD PUSH2 0x260 SWAP2 SWAP1 PUSH2 0x4FD JUMP JUMPDEST PUSH1 0x40 MLOAD DUP1 SWAP2 SUB SWAP1 RETURN JUMPDEST PUSH2 0x271 PUSH2 0x3B6 JUMP JUMPDEST PUSH1 0x40 MLOAD PUSH2 0x27E SWAP2 SWAP1 PUSH2 0x52E JUMP JUMPDEST PUSH1 0x40 MLOAD DUP1 SWAP2 SUB SWAP1 RETURN JUMPDEST PUSH2 0x28F PUSH2 0x3BC JUMP JUMPDEST PUSH1 0x40 MLOAD PUSH2 0x29C SWAP2 SWAP1 PUSH2 0x429 JUMP JUMPDEST PUSH1 0x40 MLOAD DUP1 SWAP2 SUB SWAP1 RETURN JUMPDEST PUSH2 0x2AD PUSH2 0x3CF JUMP JUMPDEST PUSH1 0x40 MLOAD PUSH2 0x2BA SWAP2 SWAP1 PUSH2 0x55F JUMP JUMPDEST PUSH1 0x40 MLOAD DUP1 SWAP2 SUB SWAP1 RETURN JUMPDEST PUSH2 0x2CB PUSH2 0x3D5 JUMP JUMPDEST PUSH1 0x40 MLOAD PUSH2 0x2D8 SWAP2 SWAP1 PUSH2 0x55F JUMP JUMPDEST PUSH1 0x40 MLOAD DUP1 SWAP2 SUB SWAP1 RETURN JUMPDEST PUSH1 0x3 PUSH1 0x1 SWAP1 SLOAD SWAP1 PUSH2 0x100 EXP SWAP1 DIV PUSH0 SIGNEXTEND DUP2 JUMP JUMPDEST PUSH1 0x3 PUSH1 0xA SWAP1 SLOAD SWAP1 PUSH2 0x100 EXP SWAP1 DIV PUSH1 0x3 SIGNEXTEND DUP2 JUMP JUMPDEST PUSH1 0x3 PUSH1 0x2 SWAP1 SLOAD SWAP1 PUSH2 0x100 EXP SWAP1 DIV PUSH1 0x1 SIGNEXTEND DUP2 JUMP JUMPDEST PUSH0 PUSH1 0x1 SWAP1 SLOAD SWAP1 PUSH2 0x100 EXP SWAP1 DIV PUSH1 0xFF AND DUP2 JUMP JUMPDEST PUSH1 0x3 PUSH0 SWAP1 SLOAD SWAP1 PUSH2 0x100 EXP SWAP1 DIV PUSH0 SIGNEXTEND DUP2 JUMP JUMPDEST PUSH0 PUSH1 0x4 SWAP1 SLOAD SWAP1 PUSH2 0x100 EXP SWAP1 DIV PUSH2 0xFFFF AND DUP2 JUMP JUMPDEST PUSH0 PUSH1 0xA SWAP1 SLOAD SWAP1 PUSH2 0x100 EXP SWAP1 DIV PUSH4 0xFFFFFFFF AND DUP2 JUMP JUMPDEST PUSH0 PUSH0 SWAP1 SLOAD SWAP1 PUSH2 0x100 EXP SWAP1 DIV PUSH1 0xFF AND DUP2 JUMP JUMPDEST PUSH0 PUSH1 0x2 SWAP1 SLOAD SWAP1 PUSH2 0x100 EXP SWAP1 DIV PUSH2 0xFFFF AND DUP2 JUMP JUMPDEST PUSH1 0x3 PUSH1 0x4 SWAP1 SLOAD SWAP1 PUSH2 0x100 EXP SWAP1 DIV PUSH1 0x1 SIGNEXTEND DUP2 JUMP JUMPDEST PUSH1 0x2 SLOAD DUP2 JUMP JUMPDEST PUSH0 PUSH1 0x6 SWAP1 SLOAD SWAP1 PUSH2 0x100 EXP SWAP1 DIV PUSH4 0xFFFFFFFF AND DUP2 JUMP JUMPDEST PUSH1 0x1 SLOAD DUP2 JUMP JUMPDEST PUSH1 0x3 PUSH1 0x6 SWAP1 SLOAD SWAP1 PUSH2 0x100 EXP SWAP1 DIV PUSH1 0x3 SIGNEXTEND DUP2 JUMP JUMPDEST PUSH1 0x5 SLOAD DUP2 JUMP JUMPDEST PUSH1 0x4 SLOAD DUP2 JUMP JUMPDEST PUSH0 DUP2 PUSH0 SIGNEXTEND SWAP1 POP SWAP2 SWAP1 POP JUMP JUMPDEST PUSH2 0x3EF DUP2 PUSH2 0x3DB JUMP JUMPDEST DUP3 MSTORE POP POP JUMP JUMPDEST PUSH0 PUSH1 0x20 DUP3 ADD SWAP1 POP PUSH2 0x408 PUSH0 DUP4 ADD DUP5 PUSH2 0x3E6 JUMP JUMPDEST SWAP3 SWAP2 POP POP JUMP JUMPDEST PUSH0 DUP2 PUSH1 0x3 SIGNEXTEND SWAP1 POP SWAP2 SWAP1 POP JUMP JUMPDEST PUSH2 0x423 DUP2 PUSH2 0x40E JUMP JUMPDEST DUP3 MSTORE POP POP JUMP JUMPDEST PUSH0 PUSH1 0x20 DUP3 ADD SWAP1 POP PUSH2 0x43C PUSH0 DUP4 ADD DUP5 PUSH2 0x41A JUMP JUMPDEST SWAP3 SWAP2 POP POP JUMP JUMPDEST PUSH0 DUP2 PUSH1 0x1 SIGNEXTEND SWAP1 POP SWAP2 SWAP1 POP JUMP JUMPDEST PUSH2 0x457 DUP2 PUSH2 0x442 JUMP JUMPDEST DUP3 MSTORE POP POP JUMP JUMPDEST PUSH0 PUSH1 0x20 DUP3 ADD SWAP1 POP PUSH2 0x470 PUSH0 DUP4 ADD DUP5 PUSH2 0x44E JUMP JUMPDEST SWAP3 SWAP2 POP POP JUMP JUMPDEST PUSH0 PUSH1 0xFF DUP3 AND SWAP1 POP SWAP2 SWAP1 POP JUMP JUMPDEST PUSH2 0x48B DUP2 PUSH2 0x476 JUMP JUMPDEST DUP3 MSTORE POP POP JUMP JUMPDEST PUSH0 PUSH1 0x20 DUP3 ADD SWAP1 POP PUSH2 0x4A4 PUSH0 DUP4 ADD DUP5 PUSH2 0x482 JUMP JUMPDEST SWAP3 SWAP2 POP POP JUMP JUMPDEST PUSH0 PUSH2 0xFFFF DUP3 AND SWAP1 POP SWAP2 SWAP1 POP JUMP JUMPDEST PUSH2 0x4C0 DUP2 PUSH2 0x4AA JUMP JUMPDEST DUP3 MSTORE POP POP JUMP JUMPDEST PUSH0 PUSH1 0x20 DUP3 ADD SWAP1 POP PUSH2 0x4D9 PUSH0 DUP4 ADD DUP5 PUSH2 0x4B7 JUMP JUMPDEST SWAP3 SWAP2 POP POP JUMP JUMPDEST PUSH0 PUSH4 0xFFFFFFFF DUP3 AND SWAP1 POP SWAP2 SWAP1 POP JUMP JUMPDEST PUSH2 0x4F7 DUP2 PUSH2 0x4DF JUMP JUMPDEST DUP3 MSTORE POP POP JUMP JUMPDEST PUSH0 PUSH1 0x20 DUP3 ADD SWAP1 POP PUSH2 0x510 PUSH0 DUP4 ADD DUP5 PUSH2 0x4EE JUMP JUMPDEST SWAP3 SWAP2 POP POP JUMP JUMPDEST PUSH0 DUP2 SWAP1 POP SWAP2 SWAP1 POP JUMP JUMPDEST PUSH2 0x528 DUP2 PUSH2 0x516 JUMP JUMPDEST DUP3 MSTORE POP POP JUMP JUMPDEST PUSH0 PUSH1 0x20 DUP3 ADD SWAP1 POP PUSH2 0x541 PUSH0 DUP4 ADD DUP5 PUSH2 0x51F JUMP JUMPDEST SWAP3 SWAP2 POP POP JUMP JUMPDEST PUSH0 DUP2 SWAP1 POP SWAP2 SWAP1 POP JUMP JUMPDEST PUSH2 0x559 DUP2 PUSH2 0x547 JUMP JUMPDEST DUP3 MSTORE POP POP JUMP JUMPDEST PUSH0 PUSH1 0x20 DUP3 ADD SWAP1 POP PUSH2 0x572 PUSH0 DUP4 ADD DUP5 PUSH2 0x550 JUMP JUMPDEST SWAP3 SWAP2 POP POP JUMP INVALID LOG2 PUSH5 0x6970667358 0x22 SLT KECCAK256 0xFC BYTE 0xD3 BLOBHASH 0x21 0xCD SWAP16 CHAINID MUL KECCAK256 PUSH22 0x859AF109B501ACFD57BF59FEE2A1C8DF47E477D59964 PUSH20 0x6F6C634300082200330000000000000000000000 "
		},
		"gasEstimates": {
			"creation": {
				"codeDepositCost": "290800",
				"executionCost": "363391",
				"totalCost": "654191"
			},
			"external": {
				"maxValue_int16()": "2566",
				"maxValue_int256()": "2491",
				"maxValue_int32()": "2567",
				"maxValue_int8()": "2543",
				"maxValue_uint16()": "2561",
				"maxValue_uint256()": "2492",
				"maxValue_uint32()": "2583",
				"maxValue_uint8()": "2606",
				"minValue_int16()": "2589",
				"minValue_int256()": "2513",
				"minValue_int32()": "2565",
				"minValue_int8()": "2491",
				"minValue_uint16()": "2539",
				"minValue_uint256()": "2447",
				"minValue_uint32()": "2605",
				"minValue_uint8()": "2554"
			}
		},
		"methodIdentifiers": {
			"maxValue_int16()": "aa5ac02b",
			"maxValue_int256()": "fc9c3fc0",
			"maxValue_int32()": "03bd7a5e",
			"maxValue_int8()": "00152ae3",
			"maxValue_uint16()": "4b275d2a",
			"maxValue_uint256()": "ad5572f8",
			"maxValue_uint32()": "5f8b5400",
			"maxValue_uint8()": "1905d859",
			"minValue_int16()": "168f0373",
			"minValue_int256()": "fed245c1",
			"minValue_int32()": "da590057",
			"minValue_int8()": "3bf3309d",
			"minValue_uint16()": "9c89a7bd",
			"minValue_uint256()": "c30e1120",
			"minValue_uint32()": "bbebf553",
			"minValue_uint8()": "76cfb3ee"
		}
	},
	"abi": [
		{
			"inputs": [],
			"name": "maxValue_int16",
			"outputs": [
				{
					"internalType": "int16",
					"name": "",
					"type": "int16"
				}
			],
			"stateMutability": "view",
			"type": "function"
		},
		{
			"inputs": [],
			"name": "maxValue_int256",
			"outputs": [
				{
					"internalType": "int256",
					"name": "",
					"type": "int256"
				}
			],
			"stateMutability": "view",
			"type": "function"
		},
		{
			"inputs": [],
			"name": "maxValue_int32",
			"outputs": [
				{
					"internalType": "int32",
					"name": "",
					"type": "int32"
				}
			],
			"stateMutability": "view",
			"type": "function"
		},
		{
			"inputs": [],
			"name": "maxValue_int8",
			"outputs": [
				{
					"internalType": "int8",
					"name": "",
					"type": "int8"
				}
			],
			"stateMutability": "view",
			"type": "function"
		},
		{
			"inputs": [],
			"name": "maxValue_uint16",
			"outputs": [
				{
					"internalType": "uint16",
					"name": "",
					"type": "uint16"
				}
			],
			"stateMutability": "view",
			"type": "function"
		},
		{
			"inputs": [],
			"name": "maxValue_uint256",
			"outputs": [
				{
					"internalType": "uint256",
					"name": "",
					"type": "uint256"
				}
			],
			"stateMutability": "view",
			"type": "function"
		},
		{
			"inputs": [],
			"name": "maxValue_uint32",
			"outputs": [
				{
					"internalType": "uint32",
					"name": "",
					"type": "uint32"
				}
			],
			"stateMutability": "view",
			"type": "function"
		},
		{
			"inputs": [],
			"name": "maxValue_uint8",
			"outputs": [
				{
					"internalType": "uint8",
					"name": "",
					"type": "uint8"
				}
			],
			"stateMutability": "view",
			"type": "function"
		},
		{
			"inputs": [],
			"name": "minValue_int16",
			"outputs": [
				{
					"internalType": "int16",
					"name": "",
					"type": "int16"
				}
			],
			"stateMutability": "view",
			"type": "function"
		},
		{
			"inputs": [],
			"name": "minValue_int256",
			"outputs": [
				{
					"internalType": "int256",
					"name": "",
					"type": "int256"
				}
			],
			"stateMutability": "view",
			"type": "function"
		},
		{
			"inputs": [],
			"name": "minValue_int32",
			"outputs": [
				{
					"internalType": "int32",
					"name": "",
					"type": "int32"
				}
			],
			"stateMutability": "view",
			"type": "function"
		},
		{
			"inputs": [],
			"name": "minValue_int8",
			"outputs": [
				{
					"internalType": "int8",
					"name": "",
					"type": "int8"
				}
			],
			"stateMutability": "view",
			"type": "function"
		},
		{
			"inputs": [],
			"name": "minValue_uint16",
			"outputs": [
				{
					"internalType": "uint16",
					"name": "",
					"type": "uint16"
				}
			],
			"stateMutability": "view",
			"type": "function"
		},
		{
			"inputs": [],
			"name": "minValue_uint256",
			"outputs": [
				{
					"internalType": "uint256",
					"name": "",
					"type": "uint256"
				}
			],
			"stateMutability": "view",
			"type": "function"
		},
		{
			"inputs": [],
			"name": "minValue_uint32",
			"outputs": [
				{
					"internalType": "uint32",
					"name": "",
					"type": "uint32"
				}
			],
			"stateMutability": "view",
			"type": "function"
		},
		{
			"inputs": [],
			"name": "minValue_uint8",
			"outputs": [
				{
					"internalType": "uint8",
					"name": "",
					"type": "uint8"
				}
			],
			"stateMutability": "view",
			"type": "function"
		}
	]
}